{
  "contractName": "MyAppName",
  "abi": [
    {
      "inputs": [],
      "payable": false,
      "stateMutability": "nonpayable",
      "type": "constructor"
    },
    {
      "constant": true,
      "inputs": [],
      "name": "test",
      "outputs": [
        {
          "internalType": "uint256",
          "name": "",
          "type": "uint256"
        }
      ],
      "payable": false,
      "stateMutability": "view",
      "type": "function"
    },
    {
      "constant": true,
      "inputs": [],
      "name": "getTotalBalance",
      "outputs": [
        {
          "internalType": "uint256",
          "name": "",
          "type": "uint256"
        }
      ],
      "payable": false,
      "stateMutability": "view",
      "type": "function"
    },
    {
      "constant": true,
      "inputs": [],
      "name": "getBalance",
      "outputs": [
        {
          "internalType": "uint256",
          "name": "",
          "type": "uint256"
        }
      ],
      "payable": false,
      "stateMutability": "view",
      "type": "function"
    },
    {
      "constant": false,
      "inputs": [
        {
          "internalType": "address payable",
          "name": "to",
          "type": "address"
        },
        {
          "internalType": "uint256",
          "name": "amount",
          "type": "uint256"
        }
      ],
      "name": "withdraw",
      "outputs": [],
      "payable": false,
      "stateMutability": "nonpayable",
      "type": "function"
    },
    {
      "constant": false,
      "inputs": [
        {
          "internalType": "uint256",
          "name": "amount",
          "type": "uint256"
        }
      ],
      "name": "bet",
      "outputs": [],
      "payable": false,
      "stateMutability": "nonpayable",
      "type": "function"
    },
    {
      "constant": false,
      "inputs": [
        {
          "internalType": "uint256",
          "name": "amount",
          "type": "uint256"
        }
      ],
      "name": "getReward",
      "outputs": [],
      "payable": false,
      "stateMutability": "nonpayable",
      "type": "function"
    },
    {
      "constant": false,
      "inputs": [],
      "name": "send",
      "outputs": [],
      "payable": true,
      "stateMutability": "payable",
      "type": "function"
    }
  ],
  "bytecode": "0x608060405234801561001057600080fd5b50336000806101000a81548173ffffffffffffffffffffffffffffffffffffffff021916908373ffffffffffffffffffffffffffffffffffffffff1602179055506003600181905550610657806100686000396000f3fe60806040526004361061008d576000357c0100000000000000000000000000000000000000000000000000000000900480637365870b1161006b5780637365870b14610123578063b46300ec1461015e578063f3fef3a314610168578063f8a8fd6d146101c35761008d565b806312065fe01461009257806312b58349146100bd5780631c4b774b146100e8575b600080fd5b34801561009e57600080fd5b506100a76101ee565b6040518082815260200191505060405180910390f35b3480156100c957600080fd5b506100d2610238565b6040518082815260200191505060405180910390f35b3480156100f457600080fd5b506101216004803603602081101561010b57600080fd5b8101908080359060200190929190505050610319565b005b34801561012f57600080fd5b5061015c6004803603602081101561014657600080fd5b810190808035906020019092919050505061036c565b005b610166610477565b005b34801561017457600080fd5b506101c16004803603604081101561018b57600080fd5b81019080803573ffffffffffffffffffffffffffffffffffffffff169060200190929190803590602001909291905050506104c9565b005b3480156101cf57600080fd5b506101d861061c565b6040518082815260200191505060405180910390f35b6000600260003373ffffffffffffffffffffffffffffffffffffffff1673ffffffffffffffffffffffffffffffffffffffff16815260200190815260200160002060000154905090565b60008060009054906101000a900473ffffffffffffffffffffffffffffffffffffffff1673ffffffffffffffffffffffffffffffffffffffff163373ffffffffffffffffffffffffffffffffffffffff16146102fc576040517f08c379a000000000000000000000000000000000000000000000000000000000815260040180806020018281038252600d8152602001807f4e6f7420746865206f776e65720000000000000000000000000000000000000081525060200191505060405180910390fd5b3073ffffffffffffffffffffffffffffffffffffffff1631905090565b80600260003373ffffffffffffffffffffffffffffffffffffffff1673ffffffffffffffffffffffffffffffffffffffff1681526020019081526020016000206000016000828254019250508190555050565b80600260003373ffffffffffffffffffffffffffffffffffffffff1673ffffffffffffffffffffffffffffffffffffffff168152602001908152602001600020600001541015610424576040517f08c379a00000000000000000000000000000000000000000000000000000000081526004018080602001828103825260108152602001807f4f76657273697a656420616d6f756e740000000000000000000000000000000081525060200191505060405180910390fd5b80600260003373ffffffffffffffffffffffffffffffffffffffff1673ffffffffffffffffffffffffffffffffffffffff1681526020019081526020016000206000016000828254039250508190555050565b34600260003373ffffffffffffffffffffffffffffffffffffffff1673ffffffffffffffffffffffffffffffffffffffff16815260200190815260200160002060000160008282540192505081905550565b80600260003373ffffffffffffffffffffffffffffffffffffffff1673ffffffffffffffffffffffffffffffffffffffff168152602001908152602001600020600001541015610581576040517f08c379a00000000000000000000000000000000000000000000000000000000081526004018080602001828103825260138152602001807f416d6f756e7420696e73756666696369656e740000000000000000000000000081525060200191505060405180910390fd5b80600260003373ffffffffffffffffffffffffffffffffffffffff1673ffffffffffffffffffffffffffffffffffffffff168152602001908152602001600020600001600082825403925050819055508173ffffffffffffffffffffffffffffffffffffffff166108fc829081150290604051600060405180830381858888f19350505050158015610617573d6000803e3d6000fd5b505050565b6001548156fea265627a7a723158205ca15ab3929bf0c24bbce54de158d9f3237143f7fd52d588f6b35c7e38528a7e64736f6c63430005100032",
  "source": "// SPDX-License-Identifier: GPL-3.0\n\npragma solidity >=0.5.0 <0.9.0;\n\ncontract MyAppName {\n\n    address owner;\n\n    uint public test;\n\n    struct Wallet {\n        uint balance;\n    }\n\n    mapping(address => Wallet) Wallets;\n\n    constructor() public {\n        owner = msg.sender;\n        test = 3;\n    }\n\n    modifier isOwner() {\n        require(msg.sender == owner, \"Not the owner\");\n        _;\n    }\n\n    function getTotalBalance() public view isOwner returns (uint)  {\n        return address(this).balance;\n    }\n\n    function getBalance() public view returns (uint) {\n        return Wallets[msg.sender].balance;\n    }\n\n    function withdraw(address payable to, uint amount) public {\n        require(Wallets[msg.sender].balance >= amount, \"Amount insufficient\");\n        Wallets[msg.sender].balance -= amount;\n        to.transfer(amount);\n    }\n\n    function bet(uint amount) public {\n        require(Wallets[msg.sender].balance >= amount, \"Oversized amount\");\n        Wallets[msg.sender].balance -= amount;\n    }\n\n    function getReward(uint amount) public  {\n        Wallets[msg.sender].balance += amount;\n    }\n\n    /*\n    function distribute(address[] memory winners, uint amount) public isOwner {\n        for(uint i = 0; i < winners.length; i++) {\n            Wallets[winners[i]].balance += amount;\n        }\n    }*/\n\n    function send() external payable {\n        Wallets[msg.sender].balance += msg.value;\n    }\n}",
  "sourcePath": "/home/antoine/Documents/OPTIDEV/BET_APP/CODE/bet_app/contracts/MyAppName.sol",
  "compiler": {
    "name": "solc",
    "version": "0.5.16+commit.9c3226ce.Emscripten.clang"
  },
  "schemaVersion": "3.4.4",
  "updatedAt": "2022-07-13T17:11:23.940Z",
  "networkType": "ethereum",
  "devdoc": {
    "methods": {}
  },
  "userdoc": {
    "methods": {}
  }
}